:100000000C9456240C947E240C947E240C947E2410
:100010000C947E240C947E240C947E240C947E24D8
:100020000C947E240C944E2B0C947E240C947E24F1
:100030000C947E240C947E240C9406240C947E2430
:100040000C947E240C947E240C947E240C94562ACA
:10005000F6C000001FC1000010C100000C947E24F7
:100060000C947E240C947E240C94A2290C947E245F
:100070000C947E240C947E240C947E240C947E2478
:100080000C947E240C947E240C947E2400000000AA
:100090000000000000000000000000000000000060
:1000A0000000000000000000000000000000000050
:1000B0000000000000000000000000000000000040
:1000C0000000000000000000000000000000000030
:1000D0000000000000000000000000000000000020
:1000E0000000000000000000000000000000000010
:1000F0000000000000000000000000000000FFFF02
:1001000000000000000000000000000000000000EF
:1001100000000000000000000000000000000000DF
:1001200000000000000000000000000000000000CF
:1001300000000000000000000000000000000000BF
:1001400000000000000000000000000000000000AF
:10015000000000000000000000000000000000009F
:10016000000000000000000000000000000000008F
:10017000000000000000000000000000000000007F
:10018000000000000000000000000000000000006F
:10019000000000000000000000000000000000005F
:1001A000000000000000000000000000000000004F
:1001B000000000000000000000000000000000003F
:1001C000000000000000000000000000000000002F
:1001D000000000000000000000000000000000001F
:1001E000000000000000000000000000000000000F
:1001F00000000000000000000000000000000000FF
:10020000FFFFFFFF6301FFFFB222FFFF0101FFFFBE
:1002100001210000A0040B010000000000000222E8
:100220000C94F7FD0C94F8FDF894A89580E084BF39
:1002300088E18093600088E080936000FFCF8F9317
:100240008FB78F93EF93FF939F930F928091C60088
:100250000E94810761F48091C00087FDF7CF0F9065
:100260009F91FF91EF918F918FBF8F911895809102
:10027000C1008F778093C100F2CF8F938FB78F9398
:100280008091C1008F7B8093C100439A8F918FBF73
:100290008F9118958F938FB78F93EF93FF939F93C1
:1002A0000E947B0779F043988093C6008091C0003C
:1002B00080648093C0009F91FF91EF918F918FBFD9
:1002C0008F9118958091C1008F7D8093C10080919E
:1002D000C10080648093C10076F78091C10080687E
:1002E0008093C100E8CF80E08093C1008093C0007C
:1002F000439A0895E091C100EF77E093C10008951B
:10030000E091C100E068E093C10008959091C100C0
:1003100090619093C1009091C00090649093C00050
:10032000089560E00C94F6FD8091C1008F7B80936E
:10033000C1008091C10080628093C10008958894BB
:100340008091C10085FD08948091C10086FD0894CC
:10035000880B08959F939091C10095FDFCCF9091DB
:10036000C10096FDF8CF9091C00090649093C000BA
:1003700043988093C6009091C00096FFFCCF909167
:10038000C00090649093C000439A9F91089510D04C
:1003900040F08F9317D08F9140F065912591359162
:1003A000089590E2189408940895989408940895F4
:1003B000E0E7FEE334969591913098F38917D1F7F1
:1003C00095910895872F8923872777FD1EC0817710
:1003D000E1F497FD1CC075FF02C074FF16C074FFE6
:1003E00002C076FD12C093FD0EC092FD0AC091FDC1
:1003F00008C0872F8E708A3010F48894089518945E
:10040000089592E2D2CF90E3D0CF96E3CECF872F5C
:10041000706800248E3439F386FD8160813419F3CD
:1004200084FF85FD80638833F1F28E33E1F2EDCFF6
:1004300071E104D0089570E201C07EE120E030E077
:1004400006D020F02032E1F73330D1F7089577FD60
:1004500027C0982F5ED051F173FD04C071FD892B28
:1004600072FD892774FF08C0E22FF32FE152F34099
:10047000E8F4EF5DFB4F808375FF0DC0E22FF32F93
:10048000E152F34098F4EF55FC4F982F0F92F0D0C3
:100490000F90892F49F4239509F433958894089592
:1004A000902D0394F901099496E27FCF97E27DCFD6
:1004B000192E1A0E862F6BDF08F4089599F423D0B5
:1004C0008F9321D09F9119F4862F891B78F3803068
:1004D00069F3890F58F3681748F3891B682F290FB0
:1004E00008F43395603011F376FD07C00CD0AFDF10
:1004F00020F36A95D9F7991B089505D011F4991B3B
:10050000089598E252CF1A1611F08D910895881B24
:10051000089573FF04C071FF0CC072FD15C070FD1B
:100520000AC0E22FF32FE152F340C8F4EF5DFB4F16
:10053000808198940895E22FF32FE152F34078F4EC
:10054000EF55FC4FAED0089580E0E22FF32FE1523B
:10055000F34078F7EB58F14C849198940895881BF8
:100560000895E0E1F0E09DD08B3E51F59AD08130C6
:1005700039F5E4E1F0E08FD08058904009F58BD058
:1005800080529340E9F47DD0825090406A4B714292
:10059000B9F4E0E8F0E0AF93BF93A0E0B1E070E021
:1005A00060E07FD08D93BAD0E03AD9F7F330C9F745
:1005B000BF91AF91E2E1F0E06ED0681B790B59F08A
:1005C000E9E0F0E06ED08D3020F08CE0E9E0F0E082
:1005D0004FD033DF989411F080E4089580E00895BF
:1005E000D9F008D0C9F008958CE0E9E0F0E040D0FF
:1005F000F1F4EFDFE0E8F0E0AF93BF93A0E0B1E00B
:10060000E894A8958D9134D081F4E03AD1F7F33095
:10061000C1F7BF91AF9146F40BD0862F972FE2E13F
:10062000F0E05CD021F490D00895BF91AF9108958F
:10063000E0E8F0E070E060E034D070D0E03AE1F75C
:10064000F330D1F7089570E060E0109721F029D0E1
:1006500065D01197E1F70895189409D0892F07D034
:10066000862F05D0872F03C0189401D0892F41F41D
:10067000082E17D0082621F068943197802532D0B3
:1006800008950FD0082E0DD0982F0BD0682F09D0C9
:10069000782F802D089505D0082E03D0982F802D17
:1006A000089557F0F999FECFF2BDE1BDF89A80B5F3
:1006B0003196089578940000F894F999FBCFF2BD33
:1006C000E1BDF89A80B5789431960895189409D0D0
:1006D000892F07D0862F05D0872F03C0189401D00B
:1006E000892FD9F4082E67F0F999FECFF2BDE1BD4C
:1006F00000BC84E08FBB86E08FBB0DC07894000007
:10070000F894F999FBCFF2BDE1BD00BC84E08FBB4A
:1007100086E08FBB7894C5DF082608958627982F3A
:100720009295907F8927082E8295982F9F70807FC1
:10073000969587950926902592959F709827872FE3
:100740008927682F702D0895E0E1F0E08BEE90DFAF
:1007500081E08DDFE4E1F0E080E890E086DF80E298
:1007600093E083DF82E090E06AEB71E276DF82EB78
:1007700092E27BDF8BE091E078DF0895E9E0F0E042
:1007800076FD08C071FD8CE08F930E94CDFD8F91A6
:1007900029F40EC08CE073FF84DF14C098E205CE0C
:1007A000E8E0F0E076FD0AC071FD8FE30DD0B1F313
:1007B0000F925EDF0F9031F096E2F7CD8FE373FF7B
:1007C00070DF02D088940895803F20F4982F9F70A6
:1007D00009F008958FE38817089576FD0EC071FD26
:1007E0008FEF913059F030F0EEE3F0E0E90F08F4CC
:1007F000F395DECF87FD04C061E080E08894089522
:100800000F921F922F933F934F935F936F937F931A
:10081000AF93BF9311241196CD0161EF7FEF0E943A
:100820009744BF91AF917F916F915F914F913F91AD
:100830002F911F900F90E1CF8B3F21F40E94532501
:10084000803011F44BD056D30894089580912C0435
:1008500080688D3FB9F783E46FC080E08093730CAC
:10086000CAD2A1F380688D3F39F7C1D281E080936D
:10087000220422D380932504BED29091220492FDBB
:10088000D1F490911F049370B1F0913031F48F93B3
:100890000E94BC4180308F9171F0823061F08530D0
:1008A00051F0803341F063D26F5F7F4F8F4F9F4F86
:1008B00011F080E341C038D0E0E0EBBFEDE6F8E4B2
:1008C00021D041F4E0E0EBBFE4EAFFE31BD011F4F8
:1008D00032D000C0089408950E94A107809122049C
:1008E0008C7F809322040C946E07E0E0EBBFE4EA77
:1008F000FFE30C94120193E1E0E0EBBFEEE7FFE3CE
:100900000C94F7FDEF93FF9376D2FF91EF9191E076
:1009100090932604AF93BF930E941201BF91AF91B1
:10092000809126048030089580912504C8D2881BC8
:1009300080932604089580E28F936F937F938FD0E6
:100940007F916F918F91B1D28091220481FD84FDBE
:1009500005C091E082FD92E09093230481FDBEDF0B
:100960008091220484FD19C01F922F933F934F93CF
:100970005F936F937F93AF93BF9311240E94AA4319
:10098000BF91AF917F916F915F914F913F912F9167
:100990001F908091220484FF05C08F7E80932204E3
:1009A0000E940F07C4C223D2891711F48B3B11F0A8
:1009B0000C94140147DFF8940C94FBFD1CD2823F89
:1009C000C9F729C00E944427803009F024D272E080
:1009D00034D25BD0CCD15ED282EB92E262D28BE099
:1009E00091E05FD20E94FAFD5CD282EB92E259D292
:1009F0000E944627A9CFC0D124D0862F972F20D080
:100A000082EB92E21DD049F406D2F5D10E94F5FDA9
:100A100009F092CFD5D1A7D18FCF88E28DCF67D102
:100A20007DE00BD232D0809121040E9455070E94B4
:100A300047278ACF89D1EFCF0E9428250895EBCF91
:100A400031F4082E9F93D3D1FF9180159F0708950D
:100A5000782F60E090E08BEF0E94210717C080E0C4
:100A6000782F0E941D078091220480FF08958260E4
:100A7000809322040895782FE0D107C00F927F93CE
:100A80006F93DAD16F917F910F90EDDF6CD10DC232
:100A9000B2D141F0839595E0E0E0EBBFEDEAFFE3F2
:100AA0000C94F7FD48CFA7D1682F80E0A8D170E45F
:100AB000903019F0DF017D919A95603069F16F9364
:100AC0001F92F6DC1F9060F4913240F46F91862FF4
:100AD000E0E0EBBFEAE6F8E40C941201892F16C0BF
:100AE00076FD05C075FF0DC02ED059F00FC0C6DFD2
:100AF0008F91DBD180E0ABDC18F0D7D16A95D1F7CC
:100B000023CFBCDF8F911FCF80E26F938F93A7DF3E
:100B10008F919F91C6D118CF703479F46CD167D181
:100B2000B92FA82F982BD9F4A9DF80E0BED162E0BD
:100B300070E08AEB91E2AED107CF86E3E6CF80E4A6
:100B4000EED0989402C080E4EAD00E94F00229F02E
:100B500080E4E9D086E2882B089580E008953FD1B3
:100B6000603067076807690721F462E070E08AEB8C
:100B700091E2E0E0EBBFE0E0F7E10790601507905D
:100B80007005079080050790900511F083E326C05B
:100B900027D00790081A802D0790090A902D0790FA
:100BA000060A602DC1F0B8F070E4692B19F48034A6
:100BB00008F4782F37970BB608F40A9411D0E80F91
:100BC000F91F601DEF93FF9359DF80E06ED1BF9155
:100BD000AF9112D0B9CE87E390E09BBF60E095CF94
:100BE000119780E09A2F6B2F66959795879566955C
:100BF00097958795119608956BBFFD018791DF0149
:100C00006BB753D17A95C1F7089507CFF4D0E9F3C4
:100C100061E08F930E94F6FD6F9181F440F0EBD07C
:100C2000883269F4862F61E00E94F6FD39F4F3CE34
:100C3000A89591506040704031F4BACE7DCE02DE6E
:100C400090E060E679E00E94C424803089F30E943D
:100C5000C02481E0809322046F937F939F93CBD035
:100C600080688D3FF1F4C3D0C6D0803329F40E9450
:100C7000A8468030B1F4BFD08A3099F4BCD083301C
:100C800081F49F917F916F91C1CFAEDC09F581E036
:100C900061E00E94F6FD81E061E00E94F6FD71F6E0
:100CA000BACED0DD9F917F916F91C2CF809100012C
:100CB0008E7F8093000105C0809100018160809348
:100CC000000198DC29F480E42AD051F3A5DC41F33B
:100CD00080E429D086E230CE80E88093210480E150
:100CE00080932004089584E003C084E00DC080E177
:100CF00027F4F89402D07894089590912004982BCA
:100D0000982790932004089527F4F89402D07894BB
:100D1000089590912004982B90932004089590E0DA
:100D200003C0E5DF80E09FEF0090210490959823B9
:100D300080298927801539F080932104909120041F
:100D4000906390932004089527F4F89402D0789447
:100D5000089580912004807129F480912104807489
:100D6000809321040895809120048F71089504D008
:100D7000FC01CB01BF0108950C9488FF3CD080306A
:100D800059F090912404981739F48091230481300C
:100D900009F4A2CD8BE3D0CD80932404DAD069CDC1
:100DA0000E94D146089527D0E0E0EBBFE6E7F8E4E3
:100DB0000C9412010E94730185D00E94860108954F
:100DC00080932804089580E004C080E090E0909330
:100DD0002B04EAE2F4E00E94D2FD892F0895EAE2B2
:100DE000F4E00E94D7FDFC01CB01BF010895EAE2C7
:100DF000F4E00C94D8FDEAE2F4E00C94D9FDEAE2C8
:100E0000F4E00C94CCFDEAE2F4E00E94DAFD8FEF0E
:100E100008F480E00895EAE2F4E00C94DBFD8BE74F
:100E20008093B0040895E8E2F4E00E94DCFD70E0F5
:100E300008C0682F8DEFFBCF70E0E8E2F4E00E947D
:100E4000DCFD603011F460912804E0E0E0932304BD
:100E5000E0E80E2EEEEAF4E07F9370E00E94DDFD04
:100E60001F922F933F934F935F936F937F93AF9313
:100E7000BF9311240E946D47BF91AF917F916F91F5
:100E80005F914F913F912F911F908F91803009F08A
:100E90000CD00895FC01CB01BF01EEEAF4E00C9404
:100EA000DFFDEEEAF4E00C94E0FDEEEAF4E00C94F1
:100EB000E1FD80912804089580912B04089580938A
:100EC0002B0408950E94F4FD7BDF80E880932A04C0
:100ED00080E080932B0480932C0408950E947A0173
:100EE00080E880932A0480E080932B0480932C0474
:100EF0000E9480010895EEEAF4E00E94CEFDE8949D
:100F00000895E8E2F4E00E94D0FD10F0881B0895F7
:100F100051F080E880932A0480E080932B04809332
:100F20002C04881B08950E94BC248F6F0895EEEA5C
:100F3000F4E00E94E2FD20F0EEEAF4E00C9494016B
:100F4000089561DFE8F78091B004886F8093B00462
:100F5000F3CF80E054DF39F0903029F0329782816E
:100F600081939A95E1F780912A04825080932A0414
:100F700080912B04825080932B040895AF93BF93EC
:100F8000ED90FD900D901D90CD90DD904D905D9079
:100F90008D906D903D909D90AD90BD907D902D90E9
:100FA000772794C0C0016F2DEE2DF490F2E41490D9
:100FB000E22D04900F24E32DF491FF26F1E4E49157
:100FC0000E26E22DE4911E26EE2DE490ED2DF491F7
:100FD000FF26F2E4F491EF26F0E4E4910E261E26BB
:100FE000E22DE491EE26FE26E32DE4911E26EE2668
:100FF000D201EC2DD490F2E45490E92F44904D248A
:10100000E72DF491DF26F1E4E4914E26E92FE491F7
:101010005E26EC2DC490E62DF491DF26F2E4F491E7
:10102000CF26F0E4E4914E265E26E92FE491CE2609
:10103000DE26E72DE4915E26CE26992DE82D6490DC
:10104000F2E49490EB2F34903624E82FF4916F263D
:10105000F1E4E4913E26EB2FE4919E26E82D849066
:10106000EB2DF4916F26F2E4F4918F26F0E4E491F5
:101070003E269E26EB2FE4918E266E26E82FE491E5
:101080009E268E26EA2DB490F2E42490E92F7490E7
:101090007B24EA2FF491BF26F1E4E4917E26E92F28
:1010A000E4912E26EA2DA490E62FF491BF26F2E4D7
:1010B000F491AF26F0E4E4917E262E26E92FE49108
:1010C000AE26BE26EA2FE4912E26AE26F8E4E72FC0
:1010D0008491F0E4ED85BE269E2FE4918E27E88171
:1010E000EE268E278883EC81CE268E278C83E8859A
:1010F0008E268E278887EC85AE268E278C87B49126
:10110000EB811E26BE27BB838F8158268B278F83BA
:10111000EB859E268E278B87EF852E268E278F8741
:10112000A491EA810E26AE27AA838E8148268A27BB
:101130008E83EA853E268E278A87EE857E268E2739
:101140008E87E4918981F8268E278983ED81DE26BA
:101150008E278D83E9856E268E27898789278D873F
:10116000793010F473951ECFEE2DE491E880EE26D1
:10117000EC2DE491CC80CE26E82DE49188848E2657
:10118000EA2DE491AC84AE26ED2D6491EF2D94917F
:10119000F980F626E62D6491DD80D626EB2D64914C
:1011A00069846626BD84B926E32D9491E02D0A80DA
:1011B00009263490EA853E26E72D9491E42D4E8051
:1011C00049267490EE857E26E92D6491E22D949156
:1011D0002F842626E52D64919B849626E12D64912B
:1011E0005F8056261B801926BF91AF91ED92FD922C
:1011F0000D921D92CD92DD924D925D928D926D92E7
:101200003D929D92AD92BD927D922D920895059052
:101210000D92A434E1F7089501900D92A434E1F702
:1012200008957FB7F894F9990AC0F2BDE1BDF89A24
:1012300060B57FBF31966D93A434A1F708957FBF49
:10124000F1CF88941894E8940FC088949894E89407
:101250000BC00894E89408C08894189404C088943B
:10126000989401C0089468941F922F923F924F92D5
:101270005F926F927F928F929F92AF92BF92CF9226
:10128000DF92EF92FF92CF93DF93FB01A4E3B5E0EF
:10129000D8F4C2DFE6F4DC01C4E3D5E06FDEDF9111
:1012A000CF91FF90EF90DF90CF90BF90AF909F9045
:1012B0008F907F906F905F904F903F902F901F90F6
:1012C0000895AFDF46F303C0E1F3A1DF26F3DC01AD
:1012D000C4E3D5E001D0E3CFAF93BF9370E0E880E3
:1012E000F9800A801B80CC80DD804E805F808884FE
:1012F00069843A849B84AC84BD847E842F84F8E422
:10130000E72FE491EE26F0E4EB2DE491EE26CE24D7
:101310008C24EA2DA824E4911E2651249524E22D44
:101320002924E4910E2640243424E72D7324E491EB
:10133000FE26DF246D24B62473957A3000F3E8820C
:10134000F9820A821B82CC82DD824E825F8288868D
:1013500069863A869B86AC86BD867E862F86ED9012
:10136000FD900D901D90CD90DD904D905D908D90F5
:101370006D903D909D90AD90BD907D902D90F3E44B
:10138000E881EE25E490EC81EC25C490E885E82521
:101390008490EC85EA25A490962DED81ED2564904E
:1013A000E981EF25D490ED85EB25F490E985E927D7
:1013B000B490902DEA85E3250490EA81E9273490E2
:1013C000942DEE85E7254490EE81E9277490912DC8
:1013D000EF81E5251490EB85E9255490EF85E22512
:1013E0009490EB81E92724907A95F0E48881682F26
:1013F0009C8189278C83C826888598279887892689
:10140000EC85E827EC87AE26E4918B81E827EB8317
:101410001E269F8189278F8358268B8598279B8737
:101420009926EF85E827EF872E26E4918A81E82721
:10143000EA830E269E8189278E8348268A859827EF
:101440009A873926EE85E827EE877E26E491898102
:10145000E827E983FE269D8189278D83D826898503
:10146000982799876926ED85E827ED87BE26E491C0
:101470006E27F8E4E72FE4916E276883E626713043
:1014800008F4D7C0C1016D2DF5E4EE2D2490F4E4ED
:10149000D490F6E43490F7E4E490EF2DF491DF2655
:1014A000F6E4F4912F26F4E4F4913F26F5E4E49178
:1014B000EE26E02DF491DF26F4E4F4912F26F6E4F5
:1014C000F491EF26F7E4E4913E26E12DF4912F26E6
:1014D000F6E4F491DF26F4E4F491EF26F5E4E491E8
:1014E0003E26D301EC2D1490F4E46490F6E474905D
:1014F000F7E4C490E62FF4916F26F6E4F4911F26EA
:10150000F4E4F4917F26F5E4E491CE26E42DF49101
:101510006F26F4E4F4911F26F6E4F491CF26F7E465
:10152000E4917E26E52DF4911F26F6E4F4916F26D2
:10153000F4E4F491CF26F5E4E4917E266B2DE82DBA
:101540005490F4E4B490F6E40490F7E48490EA2F25
:10155000F491BF26F6E4F4915F26F4E4F4910F26AB
:10156000F5E4E4918E26E92FF491BF26F4E4F4919A
:101570005F26F6E4F4918F26F7E4E4910E26E92D38
:10158000F4915F26F6E4F491BF26F4E4F4918F26FB
:10159000F5E4E4910E26EA2D9490F4E4F490F6E458
:1015A0004490F7E4A490E62FF491FF26F6E4F4913A
:1015B0009F26F4E4F4914F26F5E4E491AE26EB2F58
:1015C000F491FF26F4E4F4919F26F6E4F491AF261B
:1015D000F7E4E4914E26E82FF4919F26F6E4F49187
:1015E000FF26F4E4F491AF26F5E4E4914E26F3E40B
:1015F000EE2DE490EF2DF490E02D0490E12D149069
:10160000EC2DC490ED2DD490E42D4490E52D549014
:10161000E82D8490E62D6490E32D3490E92D94908C
:10162000EA2DA490EB2DB490E72D7490E22D249038
:10163000DBCEBF91AF91ED92FD920D921D92CD92B6
:10164000DD924D925D928D926D923D929D92AD9202
:10165000BD927D922D920895E5ED0C94F2FDE6ED9C
:101660000C94F2FDE7ED0C94F2FDE8ED0C94F2FD24
:10167000E9ED0C94F2FDEAED0C94F2FDEBED0C9427
:10168000F2FDEFED0C94F3FDE0EE0C94F3FDE1EED2
:101690000C94F3FD90EC8FEF82B991B99FE480E751
:1016A00085B994B99FEF8FE388B997B99EEF87EF1B
:1016B0008BB99AB90895FFFFFFFFFFFFFFFFFFFF00
:1016C000FFFFFFFFFFFFFFFFFFFFFFFFFFFFFFFF2A
:1016D000FFFFFFFFFFFFFFFFFFFFFFFFFFFFFFFF1A
:1016E000FFFFFFFFFFFFFFFFFFFFFFFFFFFFFFFF0A
:1016F000FFFFFFFFFFFFFFFFFFFFFFFFFFFFFFFFFA
:101700000200BA21542400003D3EA32F2D6FEE5B52
:101710004445424C3C2400005743464701002A24DC
:101720000000012426000321BA00020038008A05C7
:101730006201D600000002221C0F50726F78456EC5
:10174000747279204C6567696317003C29012E3754
:10175000004629012F370A464B2901303700464BF6
:1017600019000537001B001E29012E370A462901E2
:101770002F3787464B2901303700464B1900053774
:10178000011B00023702340218002E2C37004619C4
:10179000000F37001E012E370A1E012F37001E01D1
:1017A000302C37014619000F370A1E012E37871ECD
:1017B000012F37001E013035020C08000000010D1A
:1017C00008000200018F00000400029100000700E1
:1017D000079200000F0014A00000240006A10000E2
:1017E0002B0006A20000320006A30000390006A468
:1017F0000000400006A50000470006A600004E00BD
:1018000006A70000550006B000005C002A9000000A
:101810008700090A0000910004930000960010B9A7
:101820000000A70003BF0000AB0014C00000C00010
:1018300014C20000D50014C30000EA0014C4000064
:10184000FF0014C50001140014C60001290014C7CC
:1018500000013E0014C80001530014C900016800D3
:1018600014CA00017D0014CC0001920014CD0001C7
:10187000A70014CE0001BC0014CF0001D10014D188
:101880000001E60014D20001FB0014D30002100096
:1018900014D40002250014D500023A0014D6000228
:1018A0004F0014D70002640014D80002790014D944
:1018B00000028E0014DA0002A30014DB0002B8005C
:1018C00014DC0002CD0014DD0002E20014DE000290
:1018D000F70014DF00030C001483000321005C8474
:1018E00000037E005C850003DB005C86000438009A
:1018F0005CC100049500140F0804AA0012B800048B
:10190000BD00080E0004C600010001000000200018
:101910000100200010000100300010000100400014
:10192000100001005000100000000000080100003D
:10193000000008020000000001030000000008038E
:101940000000080008030000100008030000180051
:101950000803000020000803000028000103000025
:101960002900010300002A00010300002B000103ED
:1019700000002C00010300002D00010300002E00D8
:10198000010300002F0001030000300001030000EC
:1019900031000103000032000103000033000103A5
:1019A0000000340001030000350001030000360090
:1019B00001030000370001040000000008040000DB
:1019C00008000804000010000804000018000804C3
:1019D00000002000080400002800070400002F0079
:1019E0000104000030000804000038000804000072
:1019F00040000804000048000804000050000804EB
:101A0000000058000804000060000804000068009E
:101A100008040000700008040000780001040000C1
:101A20007900010400007A00010400007B00010439
:101A300000007C00010400007D00010400007E0025
:101A4000010400007F000104000080000204000087
:101A500082000104000083000104000084000104EE
:101A600000008500010400008600010400008700DA
:101A70000104000088000804000090000804000031
:101A80009800010400009900010400009A0002047B
:101A900000009C00010400009D00010400009E0065
:101AA000010400009F000105000000000605000081
:101AB00006000105000007000105000008000805F8
:101AC00000001000080500001800060500001E00B8
:101AD000010500001F0001050000200006050000B0
:101AE000260001050000270001050000280005056B
:101AF00000002D00010500002E000206000000007D
:101B000006060000060001060000070001060000AE
:101B1000080008060000100008060000180006066D
:101B200000001E00010600001F000106000020004A
:101B3000060600002600010600002700010600003E
:101B40002800050600002D00010600002E000207F7
:101B50000000000006070000060001070000070063
:101B60000107000008000807000010000807000037
:101B70001800060700001E00010700001F000107F3
:101B800000002000060700002600010700002700D3
:101B9000010700002800050700002D0001070000D4
:101BA0002E000208000000000608000006000108E0
:101BB00000000700010800000800080800001000ED
:101BC000080800001800060800001E0001080000B8
:101BD0001F00010800002000060800002600010880
:101BE00000002700010800002800050800002D0063
:101BF000010800002E000209000000000609000094
:101C0000060001090000070001090000080008099A
:101C100000001000080900001800060900001E005E
:101C2000010900001F000109000020000609000052
:101C3000260001090000270001090000280005090D
:101C400000002D00010900002E00020A0000000023
:101C5000060A00000600010A00000700010A000051
:101C60000800080A00001000080A00001800060A10
:101C700000001E00010A00001F00010A00002000F1
:101C8000060A00002600010A00002700010A0000E1
:101C90002800050A00002D00010A00002E00020B9A
:101CA00000000000060B00000600010B000007000A
:101CB000010B00000800080B00001000080B0000DA
:101CC0001800060B00001E00010B00001F00010B96
:101CD00000002000060B00002600010B000027007A
:101CE000010B00002800050B00002D00010B000077
:101CF0002E00020C00000000060C00000600010C83
:101D000000000700010C00000800080C0000100093
:101D1000080C00001800060C00001E00010C00005A
:101D20001F00010C00002000060C00002600010C22
:101D300000002700010C00002800050C00002D0009
:101D4000010C00002E00020D00000000040D000038
:101D50000400010D00000500010D00000600010D4A
:101D600000000700010D00000800010D000009003F
:101D7000010D00000A00010D00000B00010D000024
:101D80000C00010D00000D00010D00000E00010D02
:101D900000000F00010D00001000080D00001800E9
:101DA000080D00002000080D00002800080D0000AC
:101DB0003000080D00003800070D00003F00010D45
:101DC00000004000080D00004800080D0000500011
:101DD000080D00005800080D00006000080D00000C
:101DE0006800080D00007000080D00007800080D64
:101DF00000008000070D00008700010D0000880032
:101E0000080D00009000080D00009800080D00006B
:101E1000A000080D0000A800080D0000B000080D8B
:101E20000000B800080D0000C000080D0000C80048
:101E3000080D0000D000080D0000D800080D0000BB
:101E4000E000080D0000E800010D0000E900020DAF
:101E50000000EB00010D0000EC00020D0000EE00A0
:101E6000010D0000EF00010D0000F000080D000062
:101E7000F800080D00010000080D00010800080D21
:101E800000011000080D00011800020D00011A00E9
:101E9000010D00011B00010D00011C00020D0001DD
:101EA0001E00020D00012000020D00012200020DA3
:101EB00000012400020D00012600010D0001270091
:101EC000010D00012800010D00012900010D000194
:101ED0002A00010D00012B00010D00012C00010D55
:101EE00000012D00010D00012E00010D00012F0049
:101EF000010D00013000080D00013800030D000144
:101F00003B00030D00013E00010D00013F00010DEB
:101F100000014000080D00014800010D00014900CA
:101F2000010D00014C00020D00014E00010D0001E9
:101F30004F00010E00000000100E00001000020E05
:101F400000001200010E00001300010E000014003A
:101F5000040E00001800010E00001900010E000020
:101F60001A00010E00001B00010E00001C00010EF3
:101F700000001D00010E00001E00010E00001F00E9
:101F8000010E00002000080E00002800070E0000CF
:101F90002F00010E00003000080E00003800080E6F
:101FA00000004000080F00000000080F00000800BB
:101FB000080F00001000080F0000180008100000B3
:101FC00000000810000008000810000010000810B1
:101FD0000000180008100000200008100000280071
:101FE0000810000030000810000038000810000041
:101FF00040000810000048000810000050000810C1
:102000000000580008100000600008100000680080
:10201000081000007000081000007800081100008F
:10202000000008110000080008110000100008124C
:102030000000000001120000010001120000020077
:102040000612000008000112000009000112000041
:102050000A00011200000B00011200000C00011226
:1020600000000D000312000010000812000018000C
:1020700008120000200008120000280008120000CA
:10208000300008120000380008120000400008125A
:10209000000048000812000050000812000058001C
:1020A000081200006000081200006800081200001A
:1020B0007000081200007800081200008000011271
:1020C0000000810007120000880001120000890052
:1020D000011200008A0006120000900001120000A8
:1020E0009100071200009800081300000000081378
:1020F000000008000813000010000813000018007A
:102100000813000020000813000028000813000036
:1021100030000813000038000813000040000813C6
:102120000000480008130000500008130000580089
:102130000813000060000813000068000813000086
:1021400070000813000078000813000080000813D6
:102150000000880008130000900008130000980099
:102160000814000000000814000008000814000013
:1021700010000814000018000814000020000814C3
:102180000000280008140000300008140000380087
:102190000814000040000814000048000814000063
:1021A00050000814000058000814000060000814D3
:1021B000000068000814000070000114000078009E
:1021C00008140000800008140000880008140000B3
:1021D0009000081400009800081500000000081581
:1021E0000000080008150000100008150000180085
:1021F0000815000020000815000028000815000040
:1022000030000815000038000815000040000815CF
:102210000000480008150000500008150000580094
:10222000081500006000081500006800081500008F
:1022300070000815000078000815000080000815DF
:1022400000008800081500009000081500009800A4
:10225000081600000000081600000800081600001C
:1022600010000816000018000816000020000816CC
:102270000000280008160000300008160000380092
:10228000081600004000081600004800081600006C
:1022900050000816000058000816000060000816DC
:1022A00000006800081600007000081600007800A2
:1022B00008160000800008160000880008160000BC
:1022C000900008160000980008170000000008178A
:1022D0000000080008170000100008170000180090
:1022E0000817000020000817000028000817000049
:1022F00030000817000038000817000040000817D9
:10230000000048000817000050000817000058009F
:102310000817000060000817000068000817000098
:1023200070000817000078000817000080000817E8
:1023300000008800081700009000081700009800AF
:102340000818000000000818000008000818000025
:1023500010000818000018000818000020000818D5
:10236000000028000818000030000818000038009D
:102370000818000040000818000048000818000075
:1023800050000818000058000818000060000818E5
:1023900000006800081800007000081800007800AD
:1023A00008180000800008180000880008180000C5
:1023B000900008180000980008190000000001199A
:1023C00000000100011900000200011900000300D3
:1023D000051900000800081900001000011900008C
:1023E0001100011900001200011900001300011969
:1023F000000014000119000015000119000016006A
:102400000119000017000119000018000819000048
:1024100020000819000028000119000029000119F6
:1024200000002A00011900002B00051900003000EF
:1024300008190000380001190000390001190000D6
:102440003A00011900003B00011900003C0001198D
:1024500000003D00011900003E00011900003F008E
:102460000119000040000819000048000819000088
:10247000500001190000510001190000520001191B
:102480000000530005190000580008190000600002
:10249000011900006100011900006200011900002B
:1024A00063000119000064000119000065000119B2
:1024B00000006600011900006700011900006800B3
:1024C00008190000700008190000780001190000C8
:1024D0007900011900007A00011900007B0005193C
:1024E0000000800008190000880001190000890020
:1024F000011900008A00011900008B000119000079
:102500008C00011900008D00011900008E000119D6
:1025100000008F00011900009000081900009800C9
:10252000081A00000000081A00000800081A00003D
:102530001000081A00001800081A00002000081AED
:1025400000002800081A00003000081A00003800B7
:10255000081A00004000081A00004800081A00008D
:102560005000081A00005800081A00006000081AFD
:1025700000006800081A00007000081A00007800C7
:10258000081A00008000081A00008800081A0000DD
:102590009000081A00009800081B00000000081BAB
:1025A00000000800081B00001000081B00001800B5
:1025B000081B00002000081B00002800081B00006A
:1025C0003000081B00003800081B00004000081BFA
:1025D00000004800081B00005000081B00005800C5
:1025E000081B00006000081B00006800081B0000BA
:1025F0007000081B00007800081B00008000081B0A
:1026000000008800081B00009000081B00009800D4
:10261000081C00000000081C00000800081C000046
:102620001000081C00001800081C00002000081CF6
:1026300000002800081C00003000081C00003800C2
:10264000081C00004000081C00004800081C000096
:102650005000011C00005100011C00005200011C30
:1026600000005300051C00005800081C000060001A
:10267000081C00006800081C00007000081C000016
:102680007800081C00008000081C00008800081C5E
:1026900000009000081C00009800081D00000000C9
:1026A000081D00000800081D00001000081D0000A3
:1026B0001800081D00002000081D00002800081D4B
:1026C00000003000081D00003800081D0000400018
:1026D000081D00004800081D00005000081D0000F3
:1026E0005800081D00006000081D00006800081D5B
:1026F00000007000081D00007800081D0000800028
:10270000081D00008800081D00009000081D000042
:102710009800081E00000000081E00000800081EA7
:1027200000001000081E00001800081E0000200015
:10273000081E00002800081E00003000081E0000CF
:102740003800081E00004000081E00004800081E57
:1027500000005000081E00005800081E0000600025
:10276000081E00006800081E00007000081E00001F
:102770007800081E00008000081E00008800081E67
:1027800000009000081E00009800081F00000000D4
:10279000081F00000800081F00001000081F0000AC
:1027A0001800081F00002000081F00002800081F54
:1027B00000003000081F00003800081F0000400023
:1027C000081F00004800081F00005000081F0000FC
:1027D0005800081F00006000081F00006800081F64
:1027E00000007000081F00007800081F0000800033
:1027F000081F00008800081F00009000081F00004C
:1028000098000820000000000820000008000820B0
:102810000000100008200000180008200000200020
:1028200008200000280008200000300008200000D8
:102830003800082000004000082000004800082060
:102840000000500008200000580008200000600030
:102850000820000068000820000070000820000028
:102860007800082000008000082000008800082070
:1028700000009000082000009800082100000000DF
:1028800001210000010001210000020006210000DA
:10289000080008210000100008210000180008218D
:1028A000000020000821000028000821000030005E
:1028B0000821000038000821000040000821000025
:1028C000480008210000500008210000580008219D
:1028D000000060000821000068000821000070006E
:1028E0000821000078000821000080000821000075
:1028F00088000821000090000121000091000121C2
:1029000000009200012100009300012100009400CA
:102910000121000095000121000096000121000026
:102920009700012100009800082200000000082202
:102930000000080008220000100008220000180013
:1029400008220000200008220000280008220000C1
:102950003000082200003800082200004000082251
:102960000000480008220000500008220000580023
:102970000822000060000822000068000822000011
:102980007000082200007800082200008000082261
:102990000000880008220000900008220000980033
:1029A000082300000000082300000800082300009E
:1029B000100008230000180008230000200008234E
:1029C0000000280008230000300008230000380021
:1029D00008230000400008230000480008230000EE
:1029E000500008230000580008230000600008235E
:1029F0000000680008230000700008230000780031
:102A0000082300008000082300008800082300003D
:102A1000900008230000980008240000000008240B
:102A2000000008000824000010000824000018001E
:102A300008240000200008240000280008240000CA
:102A4000300008240000380008240000400008245A
:102A5000000048000824000050000824000058002E
:102A6000082400006000082400006800082400001A
:102A7000700008240000780008240000800008246A
:102A8000000088000824000090000824000098003E
:102A900008250000000008250000080008250000A7
:102AA0001000082500001800082500002000082557
:102AB000000028000825000030000825000038002C
:102AC00008250000400008250000480008250000F7
:102AD0005000082500005800082500006000082567
:102AE000000068000825000070000825000078003C
:102AF0000825000080000825000088000825000047
:102B00009000082500009800082600000000082614
:102B10000000080008260000100008260000180029
:102B200008260000200008260000280008260000D3
:102B30003000082600003800082600004000082663
:102B40000000480008260000500008260000580039
:102B50000826000060000826000068000826000023
:102B60007000082600007800082600008000082673
:102B70000000880008260000900008260000980049
:102B800008270000000008270000080008270000B0
:102B90001000082700001800082700002000082760
:102BA0000000280008270000300008270000380037
:102BB0000827000040000827000048000827000000
:102BC0005000082700005800082700006000082770
:102BD0000000680008270000700008270000780047
:102BE0000827000080000827000088000827000050
:102BF000900008270000980008280000000008281E
:102C00000000080008280000100008280000180034
:102C100008280000200008280000280008280000DC
:102C2000300008280000380008280000400008286C
:102C30000000480008280000500008280000580044
:102C4000082800006000082800006800082800002C
:102C5000700008280000780008280000800008287C
:102C60000000880008280000900008280000980054
:102C700008290000000008290000080008290000B9
:102C80001000082900001800082900002000082969
:102C90000000280008290000300008290000380042
:102CA0000829000040000829000048000829000009
:102CB0005000082900005800082900006000082979
:102CC0000000680008290000700008290000780052
:102CD0000829000080000829000088000829000059
:102CE0009000082900009800082A00000000082A27
:102CF00000000800082A00001000082A0000180040
:102D0000082A00002000082A00002800082A0000E5
:102D10003000082A00003800082A00004000082A75
:102D200000004800082A00005000082A000058004F
:102D3000082A00006000082A00006800082A000035
:102D40007000082A00007800082A00008000082A85
:102D500000008800082A00009000082A000098005F
:102D6000082B00000000082B00000800082B0000C2
:102D70001000082B00001800082B00002000082B72
:102D800000002800082B00003000082B000038004D
:102D9000082B00004000082B00004800082B000012
:102DA0005000082B00005800082B00006000082B82
:102DB00000006800082B00007000082B000078005D
:102DC000082B00008000082B00008800082B000062
:102DD0009000082B00009800082C00000000082C30
:102DE00000000800082C00001000082C000018004B
:102DF000082C00002000082C00002800082C0000EF
:102E00003000082C00003800082C00004000082C7E
:102E100000004800082C00005000082C000058005A
:102E2000082C00006000082C00006800082C00003E
:102E30007000082C00007800082C00008000082C8E
:102E400000008800082C00009000082C000098006A
:102E5000082D00000000082D00000800082D0000CB
:102E60001000082D00001800082D00002000082D7B
:102E700000002800082D00003000082D0000380058
:102E8000082D00004000082D00004800082D00001B
:102E90005000082D00005800082D00006000082D8B
:102EA00000006800082D00007000082D0000780068
:102EB000082D00008000082D00008800082D00006B
:102EC0009000082D00009800082E00000000082E39
:102ED00000000800082E00001000082E0000180056
:102EE000082E00002000082E00002800082E0000F8
:102EF0003000082E00003800082E00004000082E88
:102F000000004800082E00005000082E0000580065
:102F1000082E00006000082E00006800082E000047
:102F20007000082E00007800082E00008000082E97
:102F300000008800082E00009000082E0000980075
:102F4000082F00000000082F00000800082F0000D4
:102F50001000082F00001800082F00002000082F84
:102F600000002800082F00003000082F0000380063
:102F7000082F00004000082F00004800082F000024
:102F80005000082F00005800082F00006000082F94
:102F900000006800082F00007000082F0000780073
:102FA000082F00008000082F00008800082F000074
:102FB0009000082F00009800083000000000083042
:102FC0000000080008300000100008300000180061
:102FD0000830000020000830000028000830000001
:102FE0003000083000003800083000004000083091
:102FF0000000480008300000500008300000580071
:103000000830000060000830000068000830000050
:1030100070000830000078000830000080000830A0
:103020000000880008300000900008300000980080
:1030300008300000A00008300000A80008300000A0
:10304000B00008300000B80008300000C0000830B0
:103050000000C80008300000D00008300000D80090
:1030600008300000E00008300000E80008300000F0
:10307000F00008300000F8000830000100000830BF
:10308000000108000830000110000830000118009D
:10309000083000012000083000012800083000013D
:1030A00030000830000138000830000140000830CE
:1030B00000014800083000015000083000015800AD
:1030C000083000016000083000016800083000018D
:1030D00070000830000178000830000180000830DE
:1030E00000018800083000019000083000019800BD
:1030F00008300001A00008300001A80008300001DD
:10310000B00008300001B80008300001C0000830ED
:103110000001C80008300001D00008300001D800CC
:1031200008300001E00008300001E800083000012C
:10313000F00008300001F8000830000200000830FC
:1031400000020800083000021000083000021800D9
:103150000830000220000830000228000830000279
:10316000300008300002380008300002400008300B
:1031700000024800083000025000083000025800E9
:1031800008300002600008300002680008300002C9
:10319000700008300002780008300002800008301B
:1031A00000028800083000029000083000029800F9
:1031B00008300002A00008300002A8000830000219
:1031C000B00008300002B80008300002C00008302B
:1031D0000002C80008300002D00008300002D80009
:1031E000083100000000083100000800083100002C
:1031F00010000831000018000831000020000831DC
:1032000000002800083100003000083100003800BC
:10321000083100004000083100004800083100007B
:1032200050000831000058000831000060000831EB
:1032300000006800083100007000083100007800CC
:1032400008310000800008310000880008310000CB
:10325000900008310000980008310000A0000831FB
:103260000000A80008310000B00008310000B800DC
:1032700008310000C00008310000C800083100001B
:10328000D00008310000D80008310000E00008310B
:103290000000E80008310000F00008310000F800EC
:1032A0000831000100000831000108000831000168
:1032B0001000083100011800083100012000083119
:1032C00000012800083100013000083100013800F9
:1032D00008310001400008310001480008310001B8
:1032E0005000083100015800083100016000083129
:1032F0000001680008310001700008310001780009
:103300000831000180000831000188000831000107
:10331000900008310001980008310001A000083138
:103320000001A80008310001B00008310001B80018
:1033300008310001C00008310001C8000831000157
:10334000D00008310001D80008310001E000083148
:103350000001E80008310001F00008310001F80028
:1033600008310002000008310002080008310002A4
:103370001000083100021800083100022000083156
:103380000002280008310002300008310002380035
:1033900008310002400008310002480008310002F4
:1033A0005000083100025800083100026000083166
:1033B0000002680008310002700008310002780045
:1033C0000831000280000831000288000831000244
:1033D000900008310002980008310002A000083176
:1033E0000002A80008310002B00008310002B80055
:1033F00008310002C00008310002C8000831000294
:10340000D00008310002D800083200000000083265
:103410000000080008320000100008320000180008
:1034200008320000200008320000280008320000A6
:103430003000083200003800083200004000083236
:103440000000480008320000500008320000580018
:1034500008320000600008320000680008320000F6
:103460007000083200007800083200008000083246
:103470000000880008320000900008320000980028
:1034800008320000A00008320000A8000832000046
:10349000B00008320000B80008320000C000083256
:1034A0000000C80008320000D00008320000D80038
:1034B00008320000E00008320000E8000832000096
:1034C000F00008320000F800083200010000083265
:1034D0000001080008320001100008320001180045
:1034E00008320001200008320001280008320001E3
:1034F0003000083200013800083200014000083274
:103500000001480008320001500008320001580054
:103510000832000160000832000168000832000132
:103520007000083200017800083200018000083283
:103530000001880008320001900008320001980064
:1035400008320001A00008320001A8000832000182
:10355000B00008320001B80008320001C000083293
:103560000001C80008320001D00008320001D80074
:1035700008320001E00008320001E80008320001D2
:10358000F00008320001F8000832000200000832A2
:103590000002080008320002100008320002180081
:1035A000083200022000083200022800083200021F
:1035B00030000832000238000832000240000832B1
:1035C0000002480008320002500008320002580091
:1035D000083200026000083200026800083200026F
:1035E00070000832000278000832000280000832C1
:1035F00000028800083200029000083200029800A1
:1036000008320002A00008320002A80008320002BE
:10361000B00008320002B80008320002C0000832D0
:103620000002C80008320002D00008320002D800B0
:1036300008330000000008330000080008330000D1
:103640001000083300001800083300002000083381
:103650000000280008330000300008330000380064
:103660000833000040000833000048000833000021
:103670005000083300005800083300006000083391
:103680000000680008330000700008330000780074
:103690000833000080000833000088000833000071
:1036A000900008330000980008330000A0000833A1
:1036B0000000A80008330000B00008330000B80084
:1036C00008330000C00008330000C80008330000C1
:1036D000D00008330000D80008330000E0000833B1
:1036E0000000E80008330000F00008330000F80094
:1036F000083300010000083300010800083300010E
:1037000010000833000118000833000120000833BE
:1037100000012800083300013000083300013800A0
:10372000083300014000083300014800083300015D
:1037300050000833000158000833000160000833CE
:1037400000016800083300017000083300017800B0
:1037500008330001800008330001880008330001AD
:10376000900008330001980008330001A0000833DE
:103770000001A80008330001B00008330001B800C0
:1037800008330001C00008330001C80008330001FD
:10379000D00008330001D80008330001E0000833EE
:1037A0000001E80008330001F00008330001F800D0
:1037B000083300020000083300020800083300024A
:1037C00010000833000218000833000220000833FC
:1037D00000022800083300023000083300023800DD
:1037E000083300024000083300024800083300029A
:1037F000500008330002580008330002600008330C
:1038000000026800083300027000083300027800EC
:1038100008330002800008330002880008330002E9
:10382000900008330002980008330002A00008331B
:103830000002A80008330002B00008330002B800FC
:1038400008330002C00008330002C8000833000239
:10385000D00008330002D800083400000000013412
:1038600000000100013400000200013400000300E8
:10387000053400000800083400001000083400007F
:103880001800083400002000083400002800083424
:103890000000300008340000380008340000400008
:1038A00008340000480008340000500008340000CC
:1038B0005800083400006000083400006800083434
:1038C0000000700008340000780008340000800018
:1038D000083400008800083400009000083400001C
:1038E000980008350000000007350000070001358A
:1038F00000000800083500001000203500003000EE
:1039000020350000500020350000700020360000F7
:1039100000000836000008000836000010000836D5
:1039200000001800083600002000083600002800BB
:103930000836000030000836000038000837000064
:1039400000000237000002000437000006000200F9
:1039500002002600015000001401040753756D6D2C
:10396000617279050B44657669636520496E666FFF
:10397000070C00000F53657269616C206E756D62F3
:1039800065723A20009F080700010E5357204465D6
:1039900076696365547970653A008F080700040EF4
:1039A000485720446576696365547970653A008F9D
:1039B000100856657273696F6E3A0B000203535715
:1039C000200B000303424C20120707010711436F2D
:1039D0006E66696775726174696F6E204E6F2E0036
:1039E0008F100B496E666F204669656C643A070755
:1039F000011E0000870707011F000087070701203D
:103A00000000870707012100008707070122000047
:103A100087070701230000870707012400008707A5
:103A20000701250000870707012600008707070117
:103A300027000087070701280000870707012900E2
:103A400000870707012A0000870707012B0000876E
:103A50000707012C0000870707012D0000871204CB
:103A600000E90B4261736963205365747570100D32
:103A70004265657065722C204C6564733A0F010DC8
:103A80000A59656C6C6F77204C65640F010F09470C
:103A90007265656E204C65640F010E0752656420E7
:103AA0004C65640F010C064265657065720F011369
:103AB0000C4B6579706164204C696768740F011064
:103AC0000B4578742E20426565706572120F0111E6
:103AD0000B4261636B204C696768743A050E4F7046
:103AE00065726174696E67204D6F646529012E37B8
:103AF000004629012F370A464B2901303700464B33
:103B000029012E370A4629012F3787464B290130D4
:103B10003700464B4C1900330D05610000002C02A4
:103B2000165065726D616E656E74205472616E73AD
:103B30006D697373696F6E1353696E676C6520549A
:103B400072616E736D697373696F6E152D4C454E9E
:103B5000442400000000003448DE010F3F411CF502
:103B600001010201004F1CF50101000102130A0BC3
:103B700000800000C00000800000C0000080000045
:103B8000C00000800000C00000800000C000008075
:103B90000000C00000800000C00000800000C000E5
:103BA000000000031B0000000000000000000000F7
:103BB00000000000000000000000000010001200E3
:103BC000000000001115071000FF000000000205B2
:103BD00000040000010007000000000000000000D9
:103BE00000000000000000000000000000000000D5
:103BF0000AFF0000000000000000000000000000BC
:103C000000000400000000000000000000000000B0
:103C100000000000000000000000000300000000A1
:103C20000000000000000000000000000000000292
:103C30007C80000000000000000000000000000088
:103C40000000000000000000000000000000000074
:103C5000000000000000000102030403040102034D
:103C600003010100401CF51E4F83F400000000001A
:103C70000000000000000000000000000000000044
:103C80000000000000000000000000000000000034
:103C90000000000000000000000000000000000024
:103CA0000000000000000000000000FFFFFFFF40D8
:103CB00010F551C5040000000000000000000000E5
:103CC00000000000000000000000000000000000F4
:103CD00000000000000000000000000000000000E4
:103CE00000000000000000000000000000000000D4
:103CF00000000000000000000000000000000000C4
:103D000000000000000000000000000000000000B3
:103D100000000000000000000000000000000000A3
:103D20000000000000000000000000000000000093
:103D30000000000000000000000000000000000083
:103D40000000000000000000000000000000000073
:103D50000000000000000000000000000000000063
:103D60000000000000000000000000000000000053
:103D70000000000000000000000000000000000043
:103D80000000000000000000000000000000000033
:103D90000000000000000000000000000000000023
:103DA0000000000000000000000000000000000013
:103DB0000000000000000000000000000000000003
:103DC00000000000000000000000000000000000F3
:103DD00000000000000000000000000000000000E3
:103DE00000000000000000000000000000000000D3
:103DF00000000000000000000000000000000000C3
:103E000000000000000000000000000000000000B2
:103E100000000000000000000000000000000000A2
:103E20000000000000000000000000000000000092
:103E30000000000000000000000000000000000082
:103E40000000000000000000000000000000000072
:103E50000000000000000000000000000000000062
:103E60000000000000000000000000000000000052
:103E7000000000000CE101BE030DE101D0030FE1E1
:103E800012ED038F7102000091710702009271140C
:103E90000900A071061D00A171062300A271062968
:103EA00000A371062F00A471063500A571063B0022
:103EB000A671064100A771064700B0712A4D009017
:103EC00071097700B8710880000A71048800937145
:103ED000108C00B971039C00BF71149F00C0711455
:103EE000B300C17114C700C27114DB00C37114EFB9
:103EF00000C471140301C571141701C671142B019C
:103F0000C771143F01C871145301C971146701CA04
:103F100071147B01CB71148F01CC7114A301CD718D
:103F200014B701CE7114CB01CF7114DF01D171141C
:103F3000F301D271140702D371141B02D471142F30
:103F400002D571144302D671145702D771146B0253
:103F5000D871147F02D971149302DA7114A702DBAD
:103F60007114BB02DC7114CF02DD7114E302DE7147
:103F700014F702DF71140B030E71011F0300940488
:103F8000D304E604E204FB04D3069B04DE049B0492
:103F9000530548051C059B040F051A059B049B044B
:103FA0009B049B0430D00631BE06007B04520545BD
:103FB0000656065C06060600000000000000000031
:103FC00000000000000000000000000000000000F1
:103FD00000000000000000000000000000000000E1
:103FE00000000000000000000000000000000000D1
:103FF00000000000000000000000000000000000C1
:10400000637C777BF26B6FC53001672BFED7AB7695
:10401000CA82C97DFA5947F0ADD4A2AF9CA472C040
:10402000B7FD9326363FF7CC34A5E5F171D83115AD
:1040300004C723C31896059A071280E2EB27B275CE
:1040400009832C1A1B6E5AA0523BD6B329E32F8446
:1040500053D100ED20FCB15B6ACBBE394A4C58CF3E
:10406000D0EFAAFB434D338545F9027F503C9FA812
:1040700051A3408F929D38F5BCB6DA2110FFF3D2E0
:10408000CD0C13EC5F974417C4A77E3D645D197394
:1040900060814FDC222A908846EEB814DE5E0BDB8E
:1040A000E0323A0A4906245CC2D3AC629195E479C5
:1040B000E7C8376D8DD54EA96C56F4EA657AAE081F
:1040C000BA78252E1CA6B4C6E8DD741F4BBD8B8ABA
:1040D000703EB5664803F60E613557B986C11D9E20
:1040E000E1F8981169D98E949B1E87E9CE5528DF97
:1040F0008CA1890DBFE6426841992D0FB054BB16C3
:10410000C6F8EEF6FFD6DE916002CE56E7B54DEC6E
:104110008F1F89FAEFB28EFB41B35F452353E49BB7
:1041200075E13D4C6C7EF5836851D1F9E2AB622AB2
:104130000895469D30370A2F0E241BDFCD4E7FEAAF
:10414000121D583436DCB45BA476B77D52DD5E13A5
:10415000A6B900C140E379B6D48D67729498B08552
:10416000BBC54FED869A66118AE904FEA078254BFF
:10417000A25D80053F2170F16377AF4220E5FDBF6E
:10418000811826C3BE35882E9355FC7AC8BA32E60C
:10419000C0199EA344543B0B8CC76B28A7BC16AD1B
:1041A000DB647414920C48B89FBD43C43931D3F218
:1041B000D58B6EDA01B19C49D8ACF3CFCAF4471065
:1041C0006FF04A5C38577397CBA1E83E96610D0FAC
:1041D000E07C71CC9006F71CC26AAE6917993A2749
:1041E000D9EB2B22D2A907332D3C15C987AA50A59C
:1041F0000359091A65D784D082295A1E7BA86D2CD1
:10420000A584998D0DBDB1545003A97D1962E69A1C
:10421000459D408715EBC90BEC67FDEABFF7965B40
:10422000C21CAE6A5A41024F5CF434089373533F88
:104230000C52655E28A10FB509369B3D2669CD9FBE
:104240001B9E742E2DB2EEFBF64D61CE7B3E719718
:10425000F568002C601FC8EDBE46D94BDED4E84A95
:104260006B2AE516C5D75594CF100681F044BAE302
:10427000F3FEC08AADBC4804DFC17563301A0E6D11
:104280004C14352FE1A2CC3957F28247ACE72B957D
:10429000A098D17F667EAB83CA29D33C79E21D7694
:1042A0003B564E1EDB0A6CE45D6EEFA6A8A4378B6E
:1042B000324359B78C64D2E0B4FA0725AF8EE918BF
:1042C000D5886F7224F1C751237C9C21DDDC868563
:1042D0009042C4AAD8050112A35FF9D0915827B91A
:1042E0003813B333BB7089A7B622922049FF787A7E
:1042F0008FF88017DA31C6B8C3B07711CBFCD63A45
:1043000052096AD53036A538BF40A39E81F3D7FB4A
:104310007CE339829B2FFF87348E4344C4DEE9CB94
:10432000547B9432A6C2233DEE4C950B42FAC34E09
:10433000082EA16628D924B2765BA2496D8BD125BF
:1043400072F8F66486689816D4A45CCC5D65B69263
:104350006C704850FDEDB9DA5E154657A78D9D8407
:1043600090D8AB008CBCD30AF7E45805B8B3450627
:10437000D02C1E8FCA3F0F02C1AFBD0301138A6B41
:104380003A9111414F67DCEA97F2CFCEF0B4E67371
:1043900096AC7422E7AD3585E2F937E81C75DF6E1F
:1043A00047F11A711D29C5896FB7620EAA18BE1B85
:1043B000FC563E4BC6D279209ADBC0FE78CD5AF42B
:1043C0001FDDA8338807C731B11210592780EC5F71
:1043D00060517FA919B54A0D2DE57A9F93C99CEFCD
:1043E000A0E03B4DAE2AF5B0C8EBBB3C83539961CE
:1043F000172B047EBA77D626E169146355210C7D0C
:104400000009121B242D363F48415A536C657E77B4
:104410009099828BB4BDA6AFD8D1CAC3FCF5EEE7A4
:104420003B3229201F160D04737A6168575E454C94
:10443000ABA2B9B08F869D94E3EAF1F8C7CED5DC84
:10444000767F646D525B40493E372C251A13080174
:10445000E6EFF4FDC2CBD0D9AEA7BCB58A83989164
:104460004D445F5669607B72050C171E2128333A54
:10447000DDD4CFC6F9F0EBE2959C878EB1B8A3AA44
:10448000ECE5FEF7C8C1DAD3A4ADB6BF8089929B34
:104490007C756E6758514A43343D262F1019020B24
:1044A000D7DEC5CCF3FAE1E89F968D84BBB2A9A014
:1044B000474E555C636A71780F061D142B22393004
:1044C0009A938881BEB7ACA5D2DBC0C9F6FFE4EDF4
:1044D0000A0318112E273C35424B5059666F747DE4
:1044E000A1A8B3BA858C979EE9E0FBF2CDC4DFD6D4
:1044F0003138232A151C070E79706B625D544F46C4
:10450000000B161D2C273A3158534E45747F6269B3
:10451000B0BBA6AD9C978A81E8E3FEF5C4CFD2D9A3
:104520007B706D66575C414A2328353E0F04191293
:10453000CBC0DDD6E7ECF1FA9398858EBFB4A9A283
:10454000F6FDE0EBDAD1CCC7AEA5B8B38289949F73
:10455000464D505B6A617C771E1508033239242F63
:104560008D869B90A1AAB7BCD5DEC3C8F9F2EFE453
:104570003D362B20111A070C656E737849425F5443
:10458000F7FCE1EADBD0CDC6AFA4B9B28388959E33
:10459000474C515A6B607D761F1409023338252E23
:1045A0008C879A91A0ABB6BDD4DFC2C9F8F3EEE513
:1045B0003C372A21101B060D646F727948435E5503
:1045C000010A171C2D263B3059524F44757E6368F3
:1045D000B1BAA7AC9D968B80E9E2FFF4C5CED3D8E3
:1045E0007A716C67565D404B2229343F0E051813D3
:1045F000CAC1DCD7E6EDF0FB9299848FBEB5A8A3C3
:10460000000D1A1734392E236865727F5C51464BB2
:10461000D0DDCAC7E4E9FEF3B8B5A2AF8C81969BA2
:10462000BBB6A1AC8F829598D3DEC9C4E7EAFDF092
:104630006B66717C5F524548030E1914373A2D2082
:104640006D60777A5954434E05081F12313C2B2672
:10465000BDB0A7AA8984939ED5D8CFC2E1ECFBF662
:10466000D6DBCCC1E2EFF8F5BEB3A4A98A87909D52
:10467000060B1C11323F28256E6374795A57404D42
:10468000DAD7C0CDEEE3F4F9B2BFA8A5868B9C9132
:104690000A07101D3E332429626F7875565B4C4122
:1046A000616C7B7655584F420904131E3D30272A12
:1046B000B1BCABA685889F92D9D4C3CEEDE0F7FA02
:1046C000B7BAADA0838E9994DFD2C5C8EBE6F1FCF2
:1046D000676A7D70535E49440F0215183B36212CE2
:1046E0000C01161B3835222F64697E73505D4A47D2
:1046F000DCD1C6CBE8E5F2FFB4B9AEA3808D9A97C2
:10470000000E1C123836242A707E6C624846545AB9
:10471000E0EEFCF2D8D6C4CA909E8C82A8A6B4BAA9
:10472000DBD5C7C9E3EDFFF1ABA5B7B9939D8F8189
:104730003B352729030D1F114B455759737D6F6179
:10474000ADA3B1BF959B8987DDD3C1CFE5EBF9F769
:104750004D43515F757B69673D33212F050B191759
:1047600076786A644E40525C06081A143E30222C59
:1047700096988A84AEA0B2BCE6E8FAF4DED0C2CC49
:10478000414F5D537977656B313F2D230907151B29
:10479000A1AFBDB39997858BD1DFCDC3E9E7F5FB19
:1047A0009A948688A2ACBEB0EAE4F6F8D2DCCEC019
:1047B0007A746668424C5E500A041618323C2E2009
:1047C000ECE2F0FED4DAC8C69C92808EA4AAB8B6F9
:1047D0000C02101E343A28267C72606E444A5856E9
:1047E00037392B250F01131D47495B557F71636DC9
:1047F000D7D9CBC5EFE1F3FDA7A9BBB59F91838DB9
:1048000001020408102040801B360000EF93EFB730
:10481000EF93FF93E091A00CE656E093A00CE0919B
:104820008A00F0918B00E646FC4FF0938B00789461
:10483000E0938A00FF91F894E0913D0AEF5FE093E6
:104840003D0AE0913E0AEF4FE0933E0AE0913F0AB5
:10485000EF4FE0933F0AE091400AEF4F7894E093E6
:10486000400AEF91EFBFEF9118950084050B4827A0
:1048700066A130009404049F4510FA4603FC4400EE
:104880006042A70A111562D86BD1BA209D72B1128D
:10489000158F69BBA18EC4E78194E97C5FAF25C009
:1048A000FB76CE48DF06E8E9F784000011241FBE3E
:1048B000CFEFD0E4DEBFCDBF10E1A8EDBCE0E0E17A
:1048C000F0E900E00BBF02C007900D92A934B107D8
:1048D000D9F71CE0A0E0B1E001C01D92A83DB107EE
:1048E000E1F781E59AE090934E0A80934D0A909308
:1048F000500A80934F0A39D00C9406480C9400005B
:104900009FEF92B980EC81B980E785B98FE484B9D3
:104910008FE388B997B987EF8BB98EEF8AB929E20F
:1049200088E190E00FB6F894A895809360000FBEE0
:1049300020936000A895AFD2F8940E94DA060E94F6
:104940006E0778940E945A3F01C0A8950E949F016B
:104950008823D9F7F8940E94DA060E946E077894AB
:10496000F8940E94D23D78940895CADF0E94533390
:104970000E945E3FA895FACFF1E0F093730C089582
:1049800080E08093730C08958091730C08950C94CB
:1049900014010895FC01862F0E94CCFD11F4E0E083
:1049A000F0E0CF01089580E00895DC01FB014A0F9B
:1049B00088178D919191890B4A13FBCF09F08F6F66
:1049C0000895DC01FB014A0F88178D919591890BA1
:1049D0004A13FBCF09F08F6F0895FB012181382F17
:1049E000281708F4322F332379F0231B21834081C9
:1049F000431B4083CF010296820F911DBC01630FC0
:104A0000711D50E00C94EE4708951F931091470AD2
:104A10000BC081E59AE060E072E047E45AE00E9452
:104A2000483E0E9455071150112399F71F91089590
:104A30001F93CF93DF93162FEC0104C089910E943E
:104A4000550711501123D1F7DF91CF911F91089590
:104A50008DE49AE060E072E047E45AE00E94D83DBD
:104A60008823C1F081E59AE060E072E047E45AE013
:104A70000E94483E0E943B05C8DF0E94A404109299
:104A8000470A8DE49AE060E072E040E050E020E008
:104A90000C94573E0C940B050E949F01882311F43F
:104AA0000C942D0408950E94FB060E94FB060E94B0
:104AB000FB06803369F40E94FB06803250F48AE2E0
:104AC00094E00E94A346882321F40E94FB066BCF4A
:104AD0006ACF80E008950F931F93CF93DF93EC018B
:104AE000162F0E94E306082F181708F4012F102F25
:104AF00004C00E94FB06899311501123D1F7802F27
:104B0000DF91CF911F910F910895FC01818188233E
:104B100011F08FEF0895808181508E3F10F081E079
:104B2000808381E0818380810895FC0181818823D5
:104B300031F48081861719F411828F5F8083089584
:104B4000FC018181811181E0089580E0089580E079
:104B500090E0089560E070E080E090E008950895AE
:104B6000FC01138281E084830895DC0113969C91FB
:104B7000139712968C911297981731F413961C92F2
:104B8000139714961C92149713968C911397ED918A
:104B9000FC911197E80FF11D60838F5F13968C9342
:104BA0000895DC0114968C911497882321F01396B4
:104BB0002C91139703C012962C91129780E090E0ED
:104BC0000AC0ED91FC911197E90FF11DE0818E175C
:104BD0000CF48E2F9F5F9217A0F30895DC011496BA
:104BE0008C911497882321F013962C91139703C06E
:104BF00012962C9112978FE790E00AC0ED91FC91EC
:104C00001197E90FF11DE081E8170CF48E2F9F5FDB
:104C10009217A0F30895FC01138281E08483089524
:104C2000DC0113969C91139712968C91129798170A
:104C300031F413961C92139714961C9214971396A2
:104C40008C911397ED91FC911197E80FF11D608302
:104C50008F5F13968C930895DC0114968C911497B2
:104C6000882321F013962C91139703C012962C9150
:104C7000129780E090E00AC0ED91FC911197E90F46
:104C8000F11DE0818E1708F48E2F9F5F9217A0F31D
:104C90000895DC0114968C911497882321F01396C3
:104CA0002C91139703C012962C9112978FEF90E0DE
:104CB0000AC0ED91FC911197E90FF11DE081E81711
:104CC00008F48E2F9F5F9217A0F30895FC011382C2
:104CD00081E084830895DC0113969C9113971296CA
:104CE0008C911297981731F413961C92139714967F
:104CF0001C92149713962C911397822F90E0880F93
:104D0000991FED91FC911197E80FF91F7183608352
:104D10002F5F13962C930895A0E0B0E0E2E9F6E24D
:104D20000C94AD47EC018C81882311F05B8101C0AC
:104D30005A81EE24FF24870140E020E030E00FC0DC
:104D4000E881F981E20FF31F80819181A0E0B0E05A
:104D5000E80EF91E0A1F1B1F4F5F2E5F3F4F4517BE
:104D600078F3852F90E0A0E0B0E020E030E040E074
:104D700050E0AA24BB246501A81AB90ACA0ADB0AB2
:104D800008C0EA0CFB1C0C1D1D1D2F5F3F4F4F4F31
:104D90005F4F8E159F05A007B10798F3C901CDB7E6
:104DA000DEB7EAE00C94C94780B180958170089520
:104DB00080B1869580958170089580B1869586959D
:104DC00080958170089580B18695869586958095A9
:104DD00081700895882311F05C9808955C9A089575
:104DE000882311F05A9808955A9A0895882311F04B
:104DF0005F9808955F9A0895882311F04498089564
:104E0000449A0895882311F016980895169A0895E3
:104E1000882311F05E9808955E9A0895882311F012
:104E200043980895439A0895882311F01798089598
:104E3000179A0895882311F05D9808955D9A089552
:104E4000882311F042980895429A0895882311F01A
:104E500045980895459A0895882311F02B9A08954E
:104E60002B980895882311F02A9A08952A98089576
:104E7000882311F0299A089529980895882311F01C
:104E8000289A08952898089580E00895089508952F
:104E90000C940B050895109244050E94FA3E9093DD
:104EA00046058093450508958091730C882381F40D
:104EB000809145059091460568E57BE10E94233F7E
:104EC0008823B1F080914405826080934405089561
:104ED0000E949F01882361F4DFDD0E94FA3E9093D7
:104EE000460580934505809144058D7F8093440558
:104EF0000895FC0112861382128215821482178291
:104F000016820895FC01828581FD02C080E008952B
:104F100082858260828781E00895DC011A968C91F7
:104F20001A9716962D913C91179718968D919C91F2
:104F300019972817390759F114968D919C91159757
:104F4000ED91FC911197E80FF91F608314968D91F4
:104F50009C911597019615969C938E93149716968F
:104F60008D919C911797019617969C938E93169707
:104F700014962D913C91159718968D919C911997A7
:104F80002817390721F415961C921E92149708953C
:104F9000FF920F931F938C01F72EBFDFC8016F2D77
:104FA000BCDF1F910F91FF900895CF92DF92EF9297
:104FB000FF920F931F936C017A018B01642FADDF79
:104FC0005527412F302F2F2DC601622FA6DF9801C4
:104FD00044275527C601622FA0DFE12EFF240027BA
:104FE0001127C6016E2D99DF1F910F91FF90EF9051
:104FF000DF90CF900895A0E0B0E0E1E0F8E20C94FB
:10500000AF476C017B018A01C0E0D0E007C0F80126
:10501000EC0FFD1FC601608180DF2196CE15DF05F4
:10502000B0F3CDB7DEB7E8E00C94CB47FC01828546
:105030008D7F82870895FC01828580FD02C080E01B
:10504000089582858160828781E00895FC01268130
:105050003781C9010895FC018681978120853185BA
:10506000281B390BC9010895DC011A968C911A97F7
:1050700016968D919C911797892B11F4E0E02BC027
:1050800012968D919C911397ED91FC911197E80FD9
:10509000F91FE08112968D919C91139701961396BA
:1050A0009C938E93129716968D919C9117970197CA
:1050B00017969C938E93169712962D913C91139769
:1050C00018968D919C9119972817390721F41396FA
:1050D0001C921E9212978E2F0895EF92FF920F93BB
:1050E0001F938C01C1DFE82EFF24C801BDDF382FDC
:1050F00020E02E293F29C9011F910F91FF90EF90C9
:1051000008954F925F926F927F928F929F92AF928B
:10511000BF92CF92DF92EF92FF920F931F934C01B9
:10512000A3DF482E552466247724C4019DDFE82E92
:10513000C4019ADFA82EC40197DFFF2400E010E02D
:10514000102F0F2DFE2CEE24BB24CC24DD24650172
:10515000BB24AA24EA28FB280C291D29E428F528C9
:105160000629172990E0A0E0B0E0B82FAA279927D8
:105170008827E82AF92A0A2B1B2BB701C8011F919F
:105180000F91FF90EF90DF90CF90BF90AF909F90E6
:105190008F907F906F905F904F900895A0E0B0E067
:1051A000E4EDF8E20C94AF478C016B017A01C0E0AA
:1051B000D0E00CC0F80186819781892B51F0C8019D
:1051C00053DFF701EC0FFD1F80832196CC15DD0521
:1051D00088F3CE01CDB7DEB7E8E00C94CB47FC01F5
:1051E00082858E7F82870895FC0113821282158248
:1051F000148217821682089580914C05882311F03D
:1052000090E006C080914B0590E0882309F491E07E
:10521000892F089580914C05882311F090E006C0F5
:1052200080914B0590E0882309F491E0892F08953F
:10523000880F809347050895682F89E495E075CC21
:1052400089E495E07DDC882311F08FEF089589E4EF
:1052500095E05BCC85E98093BC008BEF9CE0BFDFE1
:1052600010924C050895809147058E7F80934705E5
:1052700081E080934C058BEF9CE0DDDE85EA809336
:10528000BC00089585E98093BC0010924B0580EF27
:105290009CE0CCCE90914705916090934705809318
:1052A000480580EF9CE02EDE81E080934B0585EA87
:1052B0008093BC0008951F93CF93DF93EB01182FC9
:1052C000813808F010E88BEF9CE01CDE8BEF9CE04F
:1052D000612F70E0AE018FDE8BEF9CE0A7DE812FA7
:1052E000DF91CF911F91089580EF9CE07DDF8BEFE0
:1052F0009CE07ACF80EF9CE077DF8BEF9CE074CF6F
:105300000F931F93CF93DF93082FEB0180EF9CE067
:105310009DDE182F081708F4102F80EF9CE08BDE1D
:1053200080EF9CE0612F70E0AE0138DF80EF9CE001
:1053300056DF812FDF91CF911F910F91089580EF5C
:105340009CE084CE1F920F920FB60F920BB60F9275
:1053500011242F933F934F935F936F937F938F937A
:105360009F93AF93BF93EF93FF938091B900887F92
:10537000883209F1893270F48031D1F0813120F422
:10538000883009F043C014C08831A9F0803209F098
:105390003DC037C08834A9F1893428F4803389F1BD
:1053A0008034A1F51BC08035A1F0883579F527C080
:1053B0008091470508C08BEF9CE048DE882309F107
:1053C0008BEF9CE051DE8093BB0085E88093BC00AE
:1053D0001DC06091BB0080EF9CE09FDD909148056F
:1053E000992339F085EC8093BC0091509093480547
:1053F0000DC085E88093BC0010924B0507C08091DA
:10540000BB0085E98093BC0010924C05FF91EF91A1
:10541000BF91AF919F918F917F916F915F914F91CC
:105420003F912F910F900BBE0F900FBE0F901F90CA
:10543000189580EF9CE05DDD8BEF9CE05ADD89E301
:105440008093B800E9EBF0E0808183608083089569
:1054500090E080915006882309F491E0892F089507
:1054600090E080914F06882309F491E0892F0895F8
:10547000089581E19DE0EACD682F8DE496E055CB5B
:105480008DE496E05DDB882311F08FEF08958DE4C5
:1054900096E03BCB81E19DE0A7DE86E09DE0A4CED7
:1054A00086E09DE09CDE1092500608951F920F92B8
:1054B0000FB60F920BB60F9211241F932F933F93A9
:1054C0004F935F936F937F938F939F93AF93BF930C
:1054D000EF93FF931EB580915006882359F086E024
:1054E0009DE0C2DD8EBD86E09DE0B0DD882319F42D
:1054F000D7DF01C01EBC80914F06882321F081E1D7
:105500009DE0612F0ADDFF91EF91BF91AF919F91D7
:105510008F917F916F915F914F913F912F911F914B
:105520000F900BBE0F900FBE0F901F90189581E04B
:105530008093500686E09DE07EDD86E09DE086DD7E
:10554000882311F41EBCACCF86E09DE08DDD8EBDBE
:10555000089510924F0681E19DE068CD81E19DE0C4
:10556000D1DC81E080934F0608951F93CF93DF93A2
:10557000EB01182F813808F010E886E09DE0C2DCCE
:1055800086E09DE0612F70E0AE0135DD86E09DE0B4
:105590004DDD812FDF91CF911F910895DF92EF9222
:1055A000FF920F931F93D82E7B0101E11DE0C801EC
:1055B00042DDC8016D2D70E0A701F0DDF82EC801B5
:1055C0000EDE8F2D1F910F91FF90EF90DF900895C9
:1055D0008CB58CBD1092500610924F0681E19DE073
:1055E00003DE86E09DE000CECF93DF93EC0181E106
:1055F0009DE07FDC86E09DE07CDC109250061092FE
:105600004F061CBC9881992329F424982598269A42
:10561000279807C0249A259A2698279A8CB5892B13
:105620008CBD8CB59E81892B8CBD8CB59D81892BC1
:105630008CBD8CB59981892B8CBD8CB59A81892BB9
:105640008CBD8CB59B81892B8CBD1EBC8CB58064B8
:105650008CBDDF91CF9108952091D2083091D3086D
:105660004091D4085091D5088091D1089091B20012
:10567000E2E0220F331F441F551FEA95D1F7280F90
:10568000311D411D511D542F432F322F2227290F29
:10569000311D411D511DB901CA0108951F920F927C
:1056A0000FB60F9211248F939F93AF93BF931092D5
:1056B000B2008091D1088F5F8093D10881508330F0
:1056C000A9F48091D2089091D308A091D408B09108
:1056D000D5080196A11DB11D8093D2089093D308DF
:1056E000A093D408B093D5081092D108BF91AF9180
:1056F0009F918F910F900FBE0F901F901895089556
:10570000DC018091D8089091D908892B29F4B093B5
:10571000D908A093D80806C0E091DA08F091DB0818
:10572000B687A587B093DB08A093DA081196ED91B0
:10573000FC9112970995E091DA08F091DB08168642
:10574000158608958091D8089091D9080EC00580DB
:10575000F681E02D0995882311F081E00895E0910C
:10576000D608F091D708858596859093D7088093C1
:10577000D608E091D608F091D708309741F780E03D
:105780000895E091D608F091D708309781F107800D
:10579000F085E02D0995A091D608B091D7085C91CD
:1057A00040E020E030E015C01996ED91FC911A9789
:1057B000E20FF31F9081981721F02D5F3F4F99233F
:1057C00039F40180F281E02D09958F3F61F403C027
:1057D0004F5F451748F3E091D608F091D70803844E
:1057E000F485E02D09951092D7081092D6080895F7
:1057F00008951092DD081092DC0808959093DD085A
:105800008093DC0808951092DD081092DC0808955A
:1058100020E08091DC089091DD08892B09F021E0DF
:10582000822F0895E091DC08F091DD08309711F4A3
:1058300080E0089581810895E091DC08F091DD0811
:105840000580F681E02D82E0099582E00895E091DF
:10585000DC08F091DD080184F285E02D0190F081F3
:10586000E02D0995E091DC08F091DD080184F285D6
:10587000E02D0480F581E02D8BE091E00995E09129
:10588000DC08F091DD080184F285E02D0284F385C7
:10589000E02D0995E091DC08F091DD080580F681A6
:1058A000E02D80E0099580E00895E091DC08F0911A
:1058B000DD080184F285E02D0190F081E02D09954D
:1058C000E091DC08F091DD080184F285E02D028092
:1058D000F381E02D80919C0C0995E091DC08F0911A
:1058E000DD080184F285E02D0280F381E02D8091B6
:1058F0009A0C0995E091DC08F091DD080184F285AD
:10590000E02D0280F381E02D80919B0C0995E091C0
:10591000DC08F091DD080184F285E02D0284F38536
:10592000E02D0995E091DC08F091DD080580F68115
:10593000E02D80E0099580E00895E091DC08F09189
:10594000DD080184F285E02D0190F081E02D0995BC
:10595000E091DC08F091DD080184F285E02D028001
:10596000F381E02D80919F0C0995E091DC08F09186
:10597000DD080184F285E02D0280F381E02D809125
:105980009D0C0995E091DC08F091DD080184F28519
:10599000E02D0280F381E02D80919E0C0995E0912D
:1059A000DC08F091DD080184F285E02D0284F385A6
:1059B000E02D0995E091DC08F091DD080580F68185
:1059C000E02D80E0099580E00895E091DC08F091F9
:1059D000DD080184F285E02D0190F081E02D09952C
:1059E000E091DC08F091DD080184F285E02D04806F
:1059F000F581E02D80918E0C90918F0C0995E091AE
:105A0000DC08F091DD080184F285E02D0480F58149
:105A1000E02D8091900C9091910C0995E091DC081B
:105A2000F091DD080184F285E02D0480F581E02D00
:105A30008091920C9091930C0995E091DC08F09183
:105A4000DD080184F285E02D0480F581E02D809150
:105A5000940C9091950C0995E091DC08F091DD088B
:105A60000184F285E02D0480F581E02D8091960C73
:105A70009091970C0995E091DC08F091DD08018484
:105A8000F285E02D0480F581E02D8091980C9091B5
:105A9000990C0995E091DC08F091DD080184F2850C
:105AA000E02D0284F385E02D0995E091DC08F0916A
:105AB000DD080580F681E02D80E0099580E00895FD
:105AC0008F929F92AF92BF92CF92DF92EF92FF920E
:105AD0000F931F93E091DC08F091DD080780F085BB
